{
  "_format": "hh-sol-artifact-1",
  "contractName": "NFTFactory",
  "sourceName": "contracts/NFTFactory.sol",
  "abi": [
    {
      "inputs": [],
      "stateMutability": "nonpayable",
      "type": "constructor"
    },
    {
      "anonymous": false,
      "inputs": [
        {
          "indexed": false,
          "internalType": "address",
          "name": "",
          "type": "address"
        }
      ],
      "name": "Deploy",
      "type": "event"
    },
    {
      "inputs": [
        {
          "internalType": "string",
          "name": "tokenURI",
          "type": "string"
        }
      ],
      "name": "deployNFT",
      "outputs": [
        {
          "internalType": "address",
          "name": "addr",
          "type": "address"
        }
      ],
      "stateMutability": "nonpayable",
      "type": "function"
    },
    {
      "inputs": [
        {
          "internalType": "address",
          "name": "contractAddress",
          "type": "address"
        },
        {
          "internalType": "uint256",
          "name": "tokenID",
          "type": "uint256"
        },
        {
          "internalType": "uint256",
          "name": "amount",
          "type": "uint256"
        }
      ],
      "name": "mintNFT",
      "outputs": [],
      "stateMutability": "nonpayable",
      "type": "function"
    }
  ],
  "bytecode": "0x608060405234801561001057600080fd5b506100596040518060400160405280601d81526020017f696e73696465204e4654466163746f727920636f6e7374727563746f7200000081525061005e60201b61021e1760201c565b6101e1565b6100fa81604051602401610072919061015f565b6040516020818303038152906040527f41304fac000000000000000000000000000000000000000000000000000000007bffffffffffffffffffffffffffffffffffffffffffffffffffffffff19166020820180517bffffffffffffffffffffffffffffffffffffffffffffffffffffffff83818316178352505050506100fd60201b60201c565b50565b60008151905060006a636f6e736f6c652e6c6f679050602083016000808483855afa5050505050565b600061013182610181565b61013b818561018c565b935061014b81856020860161019d565b610154816101d0565b840191505092915050565b600060208201905081810360008301526101798184610126565b905092915050565b600081519050919050565b600082825260208201905092915050565b60005b838110156101bb5780820151818401526020810190506101a0565b838111156101ca576000848401525b50505050565b6000601f19601f8301169050919050565b613703806101f06000396000f3fe60806040523480156200001157600080fd5b50600436106200003a5760003560e01c80635a9d10a2146200003f578063c00b3dc0146200005f575b600080fd5b6200005d6004803603810190620000579190620004db565b62000095565b005b6200007d600480360381019062000077919062000537565b6200011c565b6040516200008c9190620005eb565b60405180910390f35b60008390508073ffffffffffffffffffffffffffffffffffffffff16631b2ef1ca84846040518363ffffffff1660e01b8152600401620000d792919062000660565b600060405180830381600087803b158015620000f257600080fd5b505af115801562000107573d6000803e3d6000fd5b505050506200011681620002bb565b50505050565b600080826040516200012e9062000421565b6200013a919062000608565b604051809103906000f08015801562000157573d6000803e3d6000fd5b5090506200019b6040518060400160405280600981526020017f616464726573733a2000000000000000000000000000000000000000000000008152508262000358565b809150620001df6040518060400160405280600681526020017f616464723a2000000000000000000000000000000000000000000000000000008152508362000358565b7f55ea6c6b31543d8e2ec6a72f71a79c0f4b72ed0d4757172b043d8f4f4cd8484882604051620002109190620005eb565b60405180910390a150919050565b620002b88160405160240162000235919062000608565b6040516020818303038152906040527f41304fac000000000000000000000000000000000000000000000000000000007bffffffffffffffffffffffffffffffffffffffffffffffffffffffff19166020820180517bffffffffffffffffffffffffffffffffffffffffffffffffffffffff8381831617835250505050620003f8565b50565b6200035581604051602401620002d29190620005eb565b6040516020818303038152906040527f2c2ecbc2000000000000000000000000000000000000000000000000000000007bffffffffffffffffffffffffffffffffffffffffffffffffffffffff19166020820180517bffffffffffffffffffffffffffffffffffffffffffffffffffffffff8381831617835250505050620003f8565b50565b620003f48282604051602401620003719291906200062c565b6040516020818303038152906040527f319af333000000000000000000000000000000000000000000000000000000007bffffffffffffffffffffffffffffffffffffffffffffffffffffffff19166020820180517bffffffffffffffffffffffffffffffffffffffffffffffffffffffff8381831617835250505050620003f8565b5050565b60008151905060006a636f6e736f6c652e6c6f679050602083016000808483855afa5050505050565b612e84806200084a83390190565b6000620004466200044084620006b6565b6200068d565b905082815260208101848484011115620004655762000464620007f5565b5b6200047284828562000746565b509392505050565b6000813590506200048b8162000815565b92915050565b600082601f830112620004a957620004a8620007f0565b5b8135620004bb8482602086016200042f565b91505092915050565b600081359050620004d5816200082f565b92915050565b600080600060608486031215620004f757620004f6620007ff565b5b600062000507868287016200047a565b93505060206200051a86828701620004c4565b92505060406200052d86828701620004c4565b9150509250925092565b60006020828403121562000550576200054f620007ff565b5b600082013567ffffffffffffffff811115620005715762000570620007fa565b5b6200057f8482850162000491565b91505092915050565b620005938162000708565b82525050565b6000620005a682620006ec565b620005b28185620006f7565b9350620005c481856020860162000755565b620005cf8162000804565b840191505092915050565b620005e5816200073c565b82525050565b600060208201905062000602600083018462000588565b92915050565b6000602082019050818103600083015262000624818462000599565b905092915050565b6000604082019050818103600083015262000648818562000599565b905062000659602083018462000588565b9392505050565b6000604082019050620006776000830185620005da565b620006866020830184620005da565b9392505050565b600062000699620006ac565b9050620006a782826200078b565b919050565b6000604051905090565b600067ffffffffffffffff821115620006d457620006d3620007c1565b5b620006df8262000804565b9050602081019050919050565b600081519050919050565b600082825260208201905092915050565b600062000715826200071c565b9050919050565b600073ffffffffffffffffffffffffffffffffffffffff82169050919050565b6000819050919050565b82818337600083830152505050565b60005b838110156200077557808201518184015260208101905062000758565b8381111562000785576000848401525b50505050565b620007968262000804565b810181811067ffffffffffffffff82111715620007b857620007b7620007c1565b5b80604052505050565b7f4e487b7100000000000000000000000000000000000000000000000000000000600052604160045260246000fd5b600080fd5b600080fd5b600080fd5b600080fd5b6000601f19601f8301169050919050565b620008208162000708565b81146200082c57600080fd5b50565b6200083a816200073c565b81146200084657600080fd5b5056fe60806040523480156200001157600080fd5b5060405162002e8438038062002e848339818101604052810190620000379190620002b2565b8062000049816200009c60201b60201c565b50620000956040518060400160405280600a81526020017f6465706c6f79204e465400000000000000000000000000000000000000000000815250620000b860201b620007981760201c565b5062000508565b8060029080519060200190620000b492919062000184565b5050565b6200015881604051602401620000cf919062000344565b6040516020818303038152906040527f41304fac000000000000000000000000000000000000000000000000000000007bffffffffffffffffffffffffffffffffffffffffffffffffffffffff19166020820180517bffffffffffffffffffffffffffffffffffffffffffffffffffffffff83818316178352505050506200015b60201b60201c565b50565b60008151905060006a636f6e736f6c652e6c6f679050602083016000808483855afa5050505050565b828054620001929062000419565b90600052602060002090601f016020900481019282620001b6576000855562000202565b82601f10620001d157805160ff191683800117855562000202565b8280016001018555821562000202579182015b8281111562000201578251825591602001919060010190620001e4565b5b50905062000211919062000215565b5090565b5b808211156200023057600081600090555060010162000216565b5090565b60006200024b620002458462000391565b62000368565b9050828152602081018484840111156200026a5762000269620004e8565b5b62000277848285620003e3565b509392505050565b600082601f830112620002975762000296620004e3565b5b8151620002a984826020860162000234565b91505092915050565b600060208284031215620002cb57620002ca620004f2565b5b600082015167ffffffffffffffff811115620002ec57620002eb620004ed565b5b620002fa848285016200027f565b91505092915050565b60006200031082620003c7565b6200031c8185620003d2565b93506200032e818560208601620003e3565b6200033981620004f7565b840191505092915050565b6000602082019050818103600083015262000360818462000303565b905092915050565b60006200037462000387565b90506200038282826200044f565b919050565b6000604051905090565b600067ffffffffffffffff821115620003af57620003ae620004b4565b5b620003ba82620004f7565b9050602081019050919050565b600081519050919050565b600082825260208201905092915050565b60005b8381101562000403578082015181840152602081019050620003e6565b8381111562000413576000848401525b50505050565b600060028204905060018216806200043257607f821691505b6020821081141562000449576200044862000485565b5b50919050565b6200045a82620004f7565b810181811067ffffffffffffffff821117156200047c576200047b620004b4565b5b80604052505050565b7f4e487b7100000000000000000000000000000000000000000000000000000000600052602260045260246000fd5b7f4e487b7100000000000000000000000000000000000000000000000000000000600052604160045260246000fd5b600080fd5b600080fd5b600080fd5b600080fd5b6000601f19601f8301169050919050565b61296c80620005186000396000f3fe608060405234801561001057600080fd5b50600436106100925760003560e01c80632eb2c2d6116100665780632eb2c2d6146101435780634e1273f41461015f578063a22cb4651461018f578063e985e9c5146101ab578063f242432a146101db57610092565b8062fdd58e1461009757806301ffc9a7146100c75780630e89341c146100f75780631b2ef1ca14610127575b600080fd5b6100b160048036038101906100ac91906119d3565b6101f7565b6040516100be91906120af565b60405180910390f35b6100e160048036038101906100dc9190611a8b565b6102c0565b6040516100ee9190611f12565b60405180910390f35b610111600480360381019061010c9190611ae5565b6103a2565b60405161011e9190611f2d565b60405180910390f35b610141600480360381019061013c9190611b12565b610436565b005b61015d6004803603810190610158919061182d565b610493565b005b61017960048036038101906101749190611a13565b610534565b6040516101869190611eb9565b60405180910390f35b6101a960048036038101906101a49190611993565b61064d565b005b6101c560048036038101906101c091906117ed565b610663565b6040516101d29190611f12565b60405180910390f35b6101f560048036038101906101f091906118fc565b6106f7565b005b60008073ffffffffffffffffffffffffffffffffffffffff168373ffffffffffffffffffffffffffffffffffffffff161415610268576040517f08c379a000000000000000000000000000000000000000000000000000000000815260040161025f90611f8f565b60405180910390fd5b60008083815260200190815260200160002060008473ffffffffffffffffffffffffffffffffffffffff1673ffffffffffffffffffffffffffffffffffffffff16815260200190815260200160002054905092915050565b60007fd9b67a26000000000000000000000000000000000000000000000000000000007bffffffffffffffffffffffffffffffffffffffffffffffffffffffff1916827bffffffffffffffffffffffffffffffffffffffffffffffffffffffff1916148061038b57507f0e89341c000000000000000000000000000000000000000000000000000000007bffffffffffffffffffffffffffffffffffffffffffffffffffffffff1916827bffffffffffffffffffffffffffffffffffffffffffffffffffffffff1916145b8061039b575061039a82610831565b5b9050919050565b6060600280546103b19061231e565b80601f01602080910402602001604051908101604052809291908181526020018280546103dd9061231e565b801561042a5780601f106103ff5761010080835404028352916020019161042a565b820191906000526020600020905b81548152906001019060200180831161040d57829003601f168201915b50505050509050919050565b6104513383836040518060200160405280600081525061089b565b61048f6040518060400160405280601c81526020017f6d696e74204e465420696e73696465204e465420636f6e747261637400000000815250610798565b5050565b61049b610a31565b73ffffffffffffffffffffffffffffffffffffffff168573ffffffffffffffffffffffffffffffffffffffff1614806104e157506104e0856104db610a31565b610663565b5b610520576040517f08c379a000000000000000000000000000000000000000000000000000000000815260040161051790611fef565b60405180910390fd5b61052d8585858585610a39565b5050505050565b6060815183511461057a576040517f08c379a00000000000000000000000000000000000000000000000000000000081526004016105719061204f565b60405180910390fd5b6000835167ffffffffffffffff81111561059757610596612457565b5b6040519080825280602002602001820160405280156105c55781602001602082028036833780820191505090505b50905060005b8451811015610642576106128582815181106105ea576105e9612428565b5b602002602001015185838151811061060557610604612428565b5b60200260200101516101f7565b82828151811061062557610624612428565b5b6020026020010181815250508061063b90612381565b90506105cb565b508091505092915050565b61065f610658610a31565b8383610d4d565b5050565b6000600160008473ffffffffffffffffffffffffffffffffffffffff1673ffffffffffffffffffffffffffffffffffffffff16815260200190815260200160002060008373ffffffffffffffffffffffffffffffffffffffff1673ffffffffffffffffffffffffffffffffffffffff16815260200190815260200160002060009054906101000a900460ff16905092915050565b6106ff610a31565b73ffffffffffffffffffffffffffffffffffffffff168573ffffffffffffffffffffffffffffffffffffffff16148061074557506107448561073f610a31565b610663565b5b610784576040517f08c379a000000000000000000000000000000000000000000000000000000000815260040161077b90611faf565b60405180910390fd5b6107918585858585610eba565b5050505050565b61082e816040516024016107ac9190611f2d565b6040516020818303038152906040527f41304fac000000000000000000000000000000000000000000000000000000007bffffffffffffffffffffffffffffffffffffffffffffffffffffffff19166020820180517bffffffffffffffffffffffffffffffffffffffffffffffffffffffff838183161783525050505061113c565b50565b60007f01ffc9a7000000000000000000000000000000000000000000000000000000007bffffffffffffffffffffffffffffffffffffffffffffffffffffffff1916827bffffffffffffffffffffffffffffffffffffffffffffffffffffffff1916149050919050565b600073ffffffffffffffffffffffffffffffffffffffff168473ffffffffffffffffffffffffffffffffffffffff16141561090b576040517f08c379a00000000000000000000000000000000000000000000000000000000081526004016109029061208f565b60405180910390fd5b6000610915610a31565b90506109368160008761092788611165565b61093088611165565b876111df565b8260008086815260200190815260200160002060008773ffffffffffffffffffffffffffffffffffffffff1673ffffffffffffffffffffffffffffffffffffffff16815260200190815260200160002060008282546109959190612212565b925050819055508473ffffffffffffffffffffffffffffffffffffffff16600073ffffffffffffffffffffffffffffffffffffffff168273ffffffffffffffffffffffffffffffffffffffff167fc3d58168c5ae7397731d063d5bbf3d657854427343f4c083240f7aacaa2d0f628787604051610a139291906120ca565b60405180910390a4610a2a816000878787876111e7565b5050505050565b600033905090565b8151835114610a7d576040517f08c379a0000000000000000000000000000000000000000000000000000000008152600401610a749061206f565b60405180910390fd5b600073ffffffffffffffffffffffffffffffffffffffff168473ffffffffffffffffffffffffffffffffffffffff161415610aed576040517f08c379a0000000000000000000000000000000000000000000000000000000008152600401610ae490611fcf565b60405180910390fd5b6000610af7610a31565b9050610b078187878787876111df565b60005b8451811015610cb8576000858281518110610b2857610b27612428565b5b602002602001015190506000858381518110610b4757610b46612428565b5b60200260200101519050600080600084815260200190815260200160002060008b73ffffffffffffffffffffffffffffffffffffffff1673ffffffffffffffffffffffffffffffffffffffff16815260200190815260200160002054905081811015610be8576040517f08c379a0000000000000000000000000000000000000000000000000000000008152600401610bdf9061200f565b60405180910390fd5b81810360008085815260200190815260200160002060008c73ffffffffffffffffffffffffffffffffffffffff1673ffffffffffffffffffffffffffffffffffffffff168152602001908152602001600020819055508160008085815260200190815260200160002060008b73ffffffffffffffffffffffffffffffffffffffff1673ffffffffffffffffffffffffffffffffffffffff1681526020019081526020016000206000828254610c9d9190612212565b9250508190555050505080610cb190612381565b9050610b0a565b508473ffffffffffffffffffffffffffffffffffffffff168673ffffffffffffffffffffffffffffffffffffffff168273ffffffffffffffffffffffffffffffffffffffff167f4a39dc06d4c0dbc64b70af90fd698a233a518aa5d07e595d983b8c0526c8f7fb8787604051610d2f929190611edb565b60405180910390a4610d458187878787876113ce565b505050505050565b8173ffffffffffffffffffffffffffffffffffffffff168373ffffffffffffffffffffffffffffffffffffffff161415610dbc576040517f08c379a0000000000000000000000000000000000000000000000000000000008152600401610db39061202f565b60405180910390fd5b80600160008573ffffffffffffffffffffffffffffffffffffffff1673ffffffffffffffffffffffffffffffffffffffff16815260200190815260200160002060008473ffffffffffffffffffffffffffffffffffffffff1673ffffffffffffffffffffffffffffffffffffffff16815260200190815260200160002060006101000a81548160ff0219169083151502179055508173ffffffffffffffffffffffffffffffffffffffff168373ffffffffffffffffffffffffffffffffffffffff167f17307eab39ab6107e8899845ad3d59bd9653f200f220920489ca2b5937696c3183604051610ead9190611f12565b60405180910390a3505050565b600073ffffffffffffffffffffffffffffffffffffffff168473ffffffffffffffffffffffffffffffffffffffff161415610f2a576040517f08c379a0000000000000000000000000000000000000000000000000000000008152600401610f2190611fcf565b60405180910390fd5b6000610f34610a31565b9050610f54818787610f4588611165565b610f4e88611165565b876111df565b600080600086815260200190815260200160002060008873ffffffffffffffffffffffffffffffffffffffff1673ffffffffffffffffffffffffffffffffffffffff16815260200190815260200160002054905083811015610feb576040517f08c379a0000000000000000000000000000000000000000000000000000000008152600401610fe29061200f565b60405180910390fd5b83810360008087815260200190815260200160002060008973ffffffffffffffffffffffffffffffffffffffff1673ffffffffffffffffffffffffffffffffffffffff168152602001908152602001600020819055508360008087815260200190815260200160002060008873ffffffffffffffffffffffffffffffffffffffff1673ffffffffffffffffffffffffffffffffffffffff16815260200190815260200160002060008282546110a09190612212565b925050819055508573ffffffffffffffffffffffffffffffffffffffff168773ffffffffffffffffffffffffffffffffffffffff168373ffffffffffffffffffffffffffffffffffffffff167fc3d58168c5ae7397731d063d5bbf3d657854427343f4c083240f7aacaa2d0f62888860405161111d9291906120ca565b60405180910390a46111338288888888886111e7565b50505050505050565b60008151905060006a636f6e736f6c652e6c6f679050602083016000808483855afa5050505050565b60606000600167ffffffffffffffff81111561118457611183612457565b5b6040519080825280602002602001820160405280156111b25781602001602082028036833780820191505090505b50905082816000815181106111ca576111c9612428565b5b60200260200101818152505080915050919050565b505050505050565b6112068473ffffffffffffffffffffffffffffffffffffffff166115b5565b156113c6578373ffffffffffffffffffffffffffffffffffffffff1663f23a6e6187878686866040518663ffffffff1660e01b815260040161124c959493929190611e5f565b602060405180830381600087803b15801561126657600080fd5b505af192505050801561129757506040513d601f19601f820116820180604052508101906112949190611ab8565b60015b61133d576112a3612486565b806308c379a0141561130057506112b8612844565b806112c35750611302565b806040517f08c379a00000000000000000000000000000000000000000000000000000000081526004016112f79190611f2d565b60405180910390fd5b505b6040517f08c379a000000000000000000000000000000000000000000000000000000000815260040161133490611f4f565b60405180910390fd5b63f23a6e6160e01b7bffffffffffffffffffffffffffffffffffffffffffffffffffffffff1916817bffffffffffffffffffffffffffffffffffffffffffffffffffffffff1916146113c4576040517f08c379a00000000000000000000000000000000000000000000000000000000081526004016113bb90611f6f565b60405180910390fd5b505b505050505050565b6113ed8473ffffffffffffffffffffffffffffffffffffffff166115b5565b156115ad578373ffffffffffffffffffffffffffffffffffffffff1663bc197c8187878686866040518663ffffffff1660e01b8152600401611433959493929190611df7565b602060405180830381600087803b15801561144d57600080fd5b505af192505050801561147e57506040513d601f19601f8201168201806040525081019061147b9190611ab8565b60015b6115245761148a612486565b806308c379a014156114e7575061149f612844565b806114aa57506114e9565b806040517f08c379a00000000000000000000000000000000000000000000000000000000081526004016114de9190611f2d565b60405180910390fd5b505b6040517f08c379a000000000000000000000000000000000000000000000000000000000815260040161151b90611f4f565b60405180910390fd5b63bc197c8160e01b7bffffffffffffffffffffffffffffffffffffffffffffffffffffffff1916817bffffffffffffffffffffffffffffffffffffffffffffffffffffffff1916146115ab576040517f08c379a00000000000000000000000000000000000000000000000000000000081526004016115a290611f6f565b60405180910390fd5b505b505050505050565b6000808273ffffffffffffffffffffffffffffffffffffffff163b119050919050565b60006115eb6115e684612118565b6120f3565b9050808382526020820190508285602086028201111561160e5761160d6124ad565b5b60005b8581101561163e578161162488826116fa565b845260208401935060208301925050600181019050611611565b5050509392505050565b600061165b61165684612144565b6120f3565b9050808382526020820190508285602086028201111561167e5761167d6124ad565b5b60005b858110156116ae578161169488826117d8565b845260208401935060208301925050600181019050611681565b5050509392505050565b60006116cb6116c684612170565b6120f3565b9050828152602081018484840111156116e7576116e66124b2565b5b6116f28482856122dc565b509392505050565b600081359050611709816128da565b92915050565b600082601f830112611724576117236124a8565b5b81356117348482602086016115d8565b91505092915050565b600082601f830112611752576117516124a8565b5b8135611762848260208601611648565b91505092915050565b60008135905061177a816128f1565b92915050565b60008135905061178f81612908565b92915050565b6000815190506117a481612908565b92915050565b600082601f8301126117bf576117be6124a8565b5b81356117cf8482602086016116b8565b91505092915050565b6000813590506117e78161291f565b92915050565b60008060408385031215611804576118036124bc565b5b6000611812858286016116fa565b9250506020611823858286016116fa565b9150509250929050565b600080600080600060a08688031215611849576118486124bc565b5b6000611857888289016116fa565b9550506020611868888289016116fa565b945050604086013567ffffffffffffffff811115611889576118886124b7565b5b6118958882890161173d565b935050606086013567ffffffffffffffff8111156118b6576118b56124b7565b5b6118c28882890161173d565b925050608086013567ffffffffffffffff8111156118e3576118e26124b7565b5b6118ef888289016117aa565b9150509295509295909350565b600080600080600060a08688031215611918576119176124bc565b5b6000611926888289016116fa565b9550506020611937888289016116fa565b9450506040611948888289016117d8565b9350506060611959888289016117d8565b925050608086013567ffffffffffffffff81111561197a576119796124b7565b5b611986888289016117aa565b9150509295509295909350565b600080604083850312156119aa576119a96124bc565b5b60006119b8858286016116fa565b92505060206119c98582860161176b565b9150509250929050565b600080604083850312156119ea576119e96124bc565b5b60006119f8858286016116fa565b9250506020611a09858286016117d8565b9150509250929050565b60008060408385031215611a2a57611a296124bc565b5b600083013567ffffffffffffffff811115611a4857611a476124b7565b5b611a548582860161170f565b925050602083013567ffffffffffffffff811115611a7557611a746124b7565b5b611a818582860161173d565b9150509250929050565b600060208284031215611aa157611aa06124bc565b5b6000611aaf84828501611780565b91505092915050565b600060208284031215611ace57611acd6124bc565b5b6000611adc84828501611795565b91505092915050565b600060208284031215611afb57611afa6124bc565b5b6000611b09848285016117d8565b91505092915050565b60008060408385031215611b2957611b286124bc565b5b6000611b37858286016117d8565b9250506020611b48858286016117d8565b9150509250929050565b6000611b5e8383611dd9565b60208301905092915050565b611b7381612268565b82525050565b6000611b84826121b1565b611b8e81856121df565b9350611b99836121a1565b8060005b83811015611bca578151611bb18882611b52565b9750611bbc836121d2565b925050600181019050611b9d565b5085935050505092915050565b611be08161227a565b82525050565b6000611bf1826121bc565b611bfb81856121f0565b9350611c0b8185602086016122eb565b611c14816124c1565b840191505092915050565b6000611c2a826121c7565b611c348185612201565b9350611c448185602086016122eb565b611c4d816124c1565b840191505092915050565b6000611c65603483612201565b9150611c70826124df565b604082019050919050565b6000611c88602883612201565b9150611c938261252e565b604082019050919050565b6000611cab602b83612201565b9150611cb68261257d565b604082019050919050565b6000611cce602983612201565b9150611cd9826125cc565b604082019050919050565b6000611cf1602583612201565b9150611cfc8261261b565b604082019050919050565b6000611d14603283612201565b9150611d1f8261266a565b604082019050919050565b6000611d37602a83612201565b9150611d42826126b9565b604082019050919050565b6000611d5a602983612201565b9150611d6582612708565b604082019050919050565b6000611d7d602983612201565b9150611d8882612757565b604082019050919050565b6000611da0602883612201565b9150611dab826127a6565b604082019050919050565b6000611dc3602183612201565b9150611dce826127f5565b604082019050919050565b611de2816122d2565b82525050565b611df1816122d2565b82525050565b600060a082019050611e0c6000830188611b6a565b611e196020830187611b6a565b8181036040830152611e2b8186611b79565b90508181036060830152611e3f8185611b79565b90508181036080830152611e538184611be6565b90509695505050505050565b600060a082019050611e746000830188611b6a565b611e816020830187611b6a565b611e8e6040830186611de8565b611e9b6060830185611de8565b8181036080830152611ead8184611be6565b90509695505050505050565b60006020820190508181036000830152611ed38184611b79565b905092915050565b60006040820190508181036000830152611ef58185611b79565b90508181036020830152611f098184611b79565b90509392505050565b6000602082019050611f276000830184611bd7565b92915050565b60006020820190508181036000830152611f478184611c1f565b905092915050565b60006020820190508181036000830152611f6881611c58565b9050919050565b60006020820190508181036000830152611f8881611c7b565b9050919050565b60006020820190508181036000830152611fa881611c9e565b9050919050565b60006020820190508181036000830152611fc881611cc1565b9050919050565b60006020820190508181036000830152611fe881611ce4565b9050919050565b6000602082019050818103600083015261200881611d07565b9050919050565b6000602082019050818103600083015261202881611d2a565b9050919050565b6000602082019050818103600083015261204881611d4d565b9050919050565b6000602082019050818103600083015261206881611d70565b9050919050565b6000602082019050818103600083015261208881611d93565b9050919050565b600060208201905081810360008301526120a881611db6565b9050919050565b60006020820190506120c46000830184611de8565b92915050565b60006040820190506120df6000830185611de8565b6120ec6020830184611de8565b9392505050565b60006120fd61210e565b90506121098282612350565b919050565b6000604051905090565b600067ffffffffffffffff82111561213357612132612457565b5b602082029050602081019050919050565b600067ffffffffffffffff82111561215f5761215e612457565b5b602082029050602081019050919050565b600067ffffffffffffffff82111561218b5761218a612457565b5b612194826124c1565b9050602081019050919050565b6000819050602082019050919050565b600081519050919050565b600081519050919050565b600081519050919050565b6000602082019050919050565b600082825260208201905092915050565b600082825260208201905092915050565b600082825260208201905092915050565b600061221d826122d2565b9150612228836122d2565b9250827fffffffffffffffffffffffffffffffffffffffffffffffffffffffffffffffff0382111561225d5761225c6123ca565b5b828201905092915050565b6000612273826122b2565b9050919050565b60008115159050919050565b60007fffffffff0000000000000000000000000000000000000000000000000000000082169050919050565b600073ffffffffffffffffffffffffffffffffffffffff82169050919050565b6000819050919050565b82818337600083830152505050565b60005b838110156123095780820151818401526020810190506122ee565b83811115612318576000848401525b50505050565b6000600282049050600182168061233657607f821691505b6020821081141561234a576123496123f9565b5b50919050565b612359826124c1565b810181811067ffffffffffffffff8211171561237857612377612457565b5b80604052505050565b600061238c826122d2565b91507fffffffffffffffffffffffffffffffffffffffffffffffffffffffffffffffff8214156123bf576123be6123ca565b5b600182019050919050565b7f4e487b7100000000000000000000000000000000000000000000000000000000600052601160045260246000fd5b7f4e487b7100000000000000000000000000000000000000000000000000000000600052602260045260246000fd5b7f4e487b7100000000000000000000000000000000000000000000000000000000600052603260045260246000fd5b7f4e487b7100000000000000000000000000000000000000000000000000000000600052604160045260246000fd5b600060033d11156124a55760046000803e6124a26000516124d2565b90505b90565b600080fd5b600080fd5b600080fd5b600080fd5b600080fd5b6000601f19601f8301169050919050565b60008160e01c9050919050565b7f455243313135353a207472616e7366657220746f206e6f6e204552433131353560008201527f526563656976657220696d706c656d656e746572000000000000000000000000602082015250565b7f455243313135353a204552433131353552656365697665722072656a6563746560008201527f6420746f6b656e73000000000000000000000000000000000000000000000000602082015250565b7f455243313135353a2062616c616e636520717565727920666f7220746865207a60008201527f65726f2061646472657373000000000000000000000000000000000000000000602082015250565b7f455243313135353a2063616c6c6572206973206e6f74206f776e6572206e6f7260008201527f20617070726f7665640000000000000000000000000000000000000000000000602082015250565b7f455243313135353a207472616e7366657220746f20746865207a65726f20616460008201527f6472657373000000000000000000000000000000000000000000000000000000602082015250565b7f455243313135353a207472616e736665722063616c6c6572206973206e6f742060008201527f6f776e6572206e6f7220617070726f7665640000000000000000000000000000602082015250565b7f455243313135353a20696e73756666696369656e742062616c616e636520666f60008201527f72207472616e7366657200000000000000000000000000000000000000000000602082015250565b7f455243313135353a2073657474696e6720617070726f76616c2073746174757360008201527f20666f722073656c660000000000000000000000000000000000000000000000602082015250565b7f455243313135353a206163636f756e747320616e6420696473206c656e67746860008201527f206d69736d617463680000000000000000000000000000000000000000000000602082015250565b7f455243313135353a2069647320616e6420616d6f756e7473206c656e6774682060008201527f6d69736d61746368000000000000000000000000000000000000000000000000602082015250565b7f455243313135353a206d696e7420746f20746865207a65726f2061646472657360008201527f7300000000000000000000000000000000000000000000000000000000000000602082015250565b600060443d1015612854576128d7565b61285c61210e565b60043d036004823e80513d602482011167ffffffffffffffff821117156128845750506128d7565b808201805167ffffffffffffffff8111156128a257505050506128d7565b80602083010160043d0385018111156128bf5750505050506128d7565b6128ce82602001850186612350565b82955050505050505b90565b6128e381612268565b81146128ee57600080fd5b50565b6128fa8161227a565b811461290557600080fd5b50565b61291181612286565b811461291c57600080fd5b50565b612928816122d2565b811461293357600080fd5b5056fea26469706673582212201a47177bced9185afe0aa6623e0a4e9a08e1bb1aae67530ca00f8db70ea46ca164736f6c63430008070033a26469706673582212205a7214d6cdd8823afe43a80369eb8bcec19203f837762ecdcddbd1859e74cbb464736f6c63430008070033",
  "linkReferences": {},
  "deployedLinkReferences": {}
}